{
  "_format": "hh-sol-artifact-1",
  "contractName": "OurNFT",
  "sourceName": "contracts/OurNFT.sol",
  "abi": [
    {
      "inputs": [],
      "stateMutability": "nonpayable",
      "type": "constructor"
    },
    {
      "inputs": [
        {
          "internalType": "address",
          "name": "sender",
          "type": "address"
        },
        {
          "internalType": "uint256",
          "name": "tokenId",
          "type": "uint256"
        },
        {
          "internalType": "address",
          "name": "owner",
          "type": "address"
        }
      ],
      "name": "ERC721IncorrectOwner",
      "type": "error"
    },
    {
      "inputs": [
        {
          "internalType": "address",
          "name": "operator",
          "type": "address"
        },
        {
          "internalType": "uint256",
          "name": "tokenId",
          "type": "uint256"
        }
      ],
      "name": "ERC721InsufficientApproval",
      "type": "error"
    },
    {
      "inputs": [
        {
          "internalType": "address",
          "name": "approver",
          "type": "address"
        }
      ],
      "name": "ERC721InvalidApprover",
      "type": "error"
    },
    {
      "inputs": [
        {
          "internalType": "address",
          "name": "operator",
          "type": "address"
        }
      ],
      "name": "ERC721InvalidOperator",
      "type": "error"
    },
    {
      "inputs": [
        {
          "internalType": "address",
          "name": "owner",
          "type": "address"
        }
      ],
      "name": "ERC721InvalidOwner",
      "type": "error"
    },
    {
      "inputs": [
        {
          "internalType": "address",
          "name": "receiver",
          "type": "address"
        }
      ],
      "name": "ERC721InvalidReceiver",
      "type": "error"
    },
    {
      "inputs": [
        {
          "internalType": "address",
          "name": "sender",
          "type": "address"
        }
      ],
      "name": "ERC721InvalidSender",
      "type": "error"
    },
    {
      "inputs": [
        {
          "internalType": "uint256",
          "name": "tokenId",
          "type": "uint256"
        }
      ],
      "name": "ERC721NonexistentToken",
      "type": "error"
    },
    {
      "inputs": [
        {
          "internalType": "address",
          "name": "owner",
          "type": "address"
        }
      ],
      "name": "OwnableInvalidOwner",
      "type": "error"
    },
    {
      "inputs": [
        {
          "internalType": "address",
          "name": "account",
          "type": "address"
        }
      ],
      "name": "OwnableUnauthorizedAccount",
      "type": "error"
    },
    {
      "anonymous": false,
      "inputs": [
        {
          "indexed": true,
          "internalType": "address",
          "name": "owner",
          "type": "address"
        },
        {
          "indexed": true,
          "internalType": "address",
          "name": "approved",
          "type": "address"
        },
        {
          "indexed": true,
          "internalType": "uint256",
          "name": "tokenId",
          "type": "uint256"
        }
      ],
      "name": "Approval",
      "type": "event"
    },
    {
      "anonymous": false,
      "inputs": [
        {
          "indexed": true,
          "internalType": "address",
          "name": "owner",
          "type": "address"
        },
        {
          "indexed": true,
          "internalType": "address",
          "name": "operator",
          "type": "address"
        },
        {
          "indexed": false,
          "internalType": "bool",
          "name": "approved",
          "type": "bool"
        }
      ],
      "name": "ApprovalForAll",
      "type": "event"
    },
    {
      "anonymous": false,
      "inputs": [
        {
          "indexed": false,
          "internalType": "uint256",
          "name": "_fromTokenId",
          "type": "uint256"
        },
        {
          "indexed": false,
          "internalType": "uint256",
          "name": "_toTokenId",
          "type": "uint256"
        }
      ],
      "name": "BatchMetadataUpdate",
      "type": "event"
    },
    {
      "anonymous": false,
      "inputs": [
        {
          "indexed": false,
          "internalType": "uint256",
          "name": "_tokenId",
          "type": "uint256"
        }
      ],
      "name": "MetadataUpdate",
      "type": "event"
    },
    {
      "anonymous": false,
      "inputs": [
        {
          "indexed": true,
          "internalType": "uint256",
          "name": "tokenId",
          "type": "uint256"
        },
        {
          "indexed": false,
          "internalType": "string",
          "name": "projectIdentifier",
          "type": "string"
        },
        {
          "indexed": false,
          "internalType": "string",
          "name": "tokenURI",
          "type": "string"
        }
      ],
      "name": "Minted",
      "type": "event"
    },
    {
      "anonymous": false,
      "inputs": [
        {
          "indexed": true,
          "internalType": "address",
          "name": "previousOwner",
          "type": "address"
        },
        {
          "indexed": true,
          "internalType": "address",
          "name": "newOwner",
          "type": "address"
        }
      ],
      "name": "OwnershipTransferred",
      "type": "event"
    },
    {
      "anonymous": false,
      "inputs": [
        {
          "indexed": true,
          "internalType": "address",
          "name": "from",
          "type": "address"
        },
        {
          "indexed": true,
          "internalType": "address",
          "name": "to",
          "type": "address"
        },
        {
          "indexed": true,
          "internalType": "uint256",
          "name": "tokenId",
          "type": "uint256"
        }
      ],
      "name": "Transfer",
      "type": "event"
    },
    {
      "inputs": [],
      "name": "PROJECT_IDENTIFIER",
      "outputs": [
        {
          "internalType": "string",
          "name": "",
          "type": "string"
        }
      ],
      "stateMutability": "view",
      "type": "function"
    },
    {
      "inputs": [
        {
          "internalType": "address",
          "name": "to",
          "type": "address"
        },
        {
          "internalType": "uint256",
          "name": "tokenId",
          "type": "uint256"
        }
      ],
      "name": "approve",
      "outputs": [],
      "stateMutability": "nonpayable",
      "type": "function"
    },
    {
      "inputs": [
        {
          "internalType": "address",
          "name": "owner",
          "type": "address"
        }
      ],
      "name": "balanceOf",
      "outputs": [
        {
          "internalType": "uint256",
          "name": "",
          "type": "uint256"
        }
      ],
      "stateMutability": "view",
      "type": "function"
    },
    {
      "inputs": [
        {
          "internalType": "uint256",
          "name": "tokenId",
          "type": "uint256"
        }
      ],
      "name": "getApproved",
      "outputs": [
        {
          "internalType": "address",
          "name": "",
          "type": "address"
        }
      ],
      "stateMutability": "view",
      "type": "function"
    },
    {
      "inputs": [
        {
          "internalType": "address",
          "name": "owner",
          "type": "address"
        },
        {
          "internalType": "address",
          "name": "operator",
          "type": "address"
        }
      ],
      "name": "isApprovedForAll",
      "outputs": [
        {
          "internalType": "bool",
          "name": "",
          "type": "bool"
        }
      ],
      "stateMutability": "view",
      "type": "function"
    },
    {
      "inputs": [
        {
          "internalType": "address",
          "name": "recipient",
          "type": "address"
        },
        {
          "internalType": "string",
          "name": "tokenURI",
          "type": "string"
        }
      ],
      "name": "mintNFT",
      "outputs": [
        {
          "internalType": "uint256",
          "name": "",
          "type": "uint256"
        }
      ],
      "stateMutability": "nonpayable",
      "type": "function"
    },
    {
      "inputs": [],
      "name": "name",
      "outputs": [
        {
          "internalType": "string",
          "name": "",
          "type": "string"
        }
      ],
      "stateMutability": "view",
      "type": "function"
    },
    {
      "inputs": [],
      "name": "owner",
      "outputs": [
        {
          "internalType": "address",
          "name": "",
          "type": "address"
        }
      ],
      "stateMutability": "view",
      "type": "function"
    },
    {
      "inputs": [
        {
          "internalType": "uint256",
          "name": "tokenId",
          "type": "uint256"
        }
      ],
      "name": "ownerOf",
      "outputs": [
        {
          "internalType": "address",
          "name": "",
          "type": "address"
        }
      ],
      "stateMutability": "view",
      "type": "function"
    },
    {
      "inputs": [],
      "name": "renounceOwnership",
      "outputs": [],
      "stateMutability": "nonpayable",
      "type": "function"
    },
    {
      "inputs": [
        {
          "internalType": "address",
          "name": "from",
          "type": "address"
        },
        {
          "internalType": "address",
          "name": "to",
          "type": "address"
        },
        {
          "internalType": "uint256",
          "name": "tokenId",
          "type": "uint256"
        }
      ],
      "name": "safeTransferFrom",
      "outputs": [],
      "stateMutability": "nonpayable",
      "type": "function"
    },
    {
      "inputs": [
        {
          "internalType": "address",
          "name": "from",
          "type": "address"
        },
        {
          "internalType": "address",
          "name": "to",
          "type": "address"
        },
        {
          "internalType": "uint256",
          "name": "tokenId",
          "type": "uint256"
        },
        {
          "internalType": "bytes",
          "name": "data",
          "type": "bytes"
        }
      ],
      "name": "safeTransferFrom",
      "outputs": [],
      "stateMutability": "nonpayable",
      "type": "function"
    },
    {
      "inputs": [
        {
          "internalType": "address",
          "name": "operator",
          "type": "address"
        },
        {
          "internalType": "bool",
          "name": "approved",
          "type": "bool"
        }
      ],
      "name": "setApprovalForAll",
      "outputs": [],
      "stateMutability": "nonpayable",
      "type": "function"
    },
    {
      "inputs": [
        {
          "internalType": "bytes4",
          "name": "interfaceId",
          "type": "bytes4"
        }
      ],
      "name": "supportsInterface",
      "outputs": [
        {
          "internalType": "bool",
          "name": "",
          "type": "bool"
        }
      ],
      "stateMutability": "view",
      "type": "function"
    },
    {
      "inputs": [],
      "name": "symbol",
      "outputs": [
        {
          "internalType": "string",
          "name": "",
          "type": "string"
        }
      ],
      "stateMutability": "view",
      "type": "function"
    },
    {
      "inputs": [
        {
          "internalType": "uint256",
          "name": "tokenId",
          "type": "uint256"
        }
      ],
      "name": "tokenURI",
      "outputs": [
        {
          "internalType": "string",
          "name": "",
          "type": "string"
        }
      ],
      "stateMutability": "view",
      "type": "function"
    },
    {
      "inputs": [
        {
          "internalType": "address",
          "name": "from",
          "type": "address"
        },
        {
          "internalType": "address",
          "name": "to",
          "type": "address"
        },
        {
          "internalType": "uint256",
          "name": "tokenId",
          "type": "uint256"
        }
      ],
      "name": "transferFrom",
      "outputs": [],
      "stateMutability": "nonpayable",
      "type": "function"
    },
    {
      "inputs": [
        {
          "internalType": "address",
          "name": "newOwner",
          "type": "address"
        }
      ],
      "name": "transferOwnership",
      "outputs": [],
      "stateMutability": "nonpayable",
      "type": "function"
    }
  ],
  "bytecode": "0x60806040523480156200001157600080fd5b50336040518060400160405280600581526020017f4d794e46540000000000000000000000000000000000000000000000000000008152506040518060400160405280600381526020017f4e46540000000000000000000000000000000000000000000000000000000000815250816000908162000090919062000472565b508060019081620000a2919062000472565b505050600073ffffffffffffffffffffffffffffffffffffffff168173ffffffffffffffffffffffffffffffffffffffff16036200011a5760006040517f1e4fbdf70000000000000000000000000000000000000000000000000000000081526004016200011191906200059e565b60405180910390fd5b6200012b816200013260201b60201c565b50620005bb565b6000600760009054906101000a900473ffffffffffffffffffffffffffffffffffffffff16905081600760006101000a81548173ffffffffffffffffffffffffffffffffffffffff021916908373ffffffffffffffffffffffffffffffffffffffff1602179055508173ffffffffffffffffffffffffffffffffffffffff168173ffffffffffffffffffffffffffffffffffffffff167f8be0079c531659141344cd1fd0a4f28419497f9722a3daafe3b4186f6b6457e060405160405180910390a35050565b600081519050919050565b7f4e487b7100000000000000000000000000000000000000000000000000000000600052604160045260246000fd5b7f4e487b7100000000000000000000000000000000000000000000000000000000600052602260045260246000fd5b600060028204905060018216806200027a57607f821691505b60208210810362000290576200028f62000232565b5b50919050565b60008190508160005260206000209050919050565b60006020601f8301049050919050565b600082821b905092915050565b600060088302620002fa7fffffffffffffffffffffffffffffffffffffffffffffffffffffffffffffffff82620002bb565b620003068683620002bb565b95508019841693508086168417925050509392505050565b6000819050919050565b6000819050919050565b6000620003536200034d62000347846200031e565b62000328565b6200031e565b9050919050565b6000819050919050565b6200036f8362000332565b620003876200037e826200035a565b848454620002c8565b825550505050565b600090565b6200039e6200038f565b620003ab81848462000364565b505050565b5b81811015620003d357620003c760008262000394565b600181019050620003b1565b5050565b601f8211156200042257620003ec8162000296565b620003f784620002ab565b8101602085101562000407578190505b6200041f6200041685620002ab565b830182620003b0565b50505b505050565b600082821c905092915050565b6000620004476000198460080262000427565b1980831691505092915050565b600062000462838362000434565b9150826002028217905092915050565b6200047d82620001f8565b67ffffffffffffffff81111562000499576200049862000203565b5b620004a5825462000261565b620004b2828285620003d7565b600060209050601f831160018114620004ea5760008415620004d5578287015190505b620004e1858262000454565b86555062000551565b601f198416620004fa8662000296565b60005b828110156200052457848901518255600182019150602085019450602081019050620004fd565b8683101562000544578489015162000540601f89168262000434565b8355505b6001600288020188555050505b505050505050565b600073ffffffffffffffffffffffffffffffffffffffff82169050919050565b6000620005868262000559565b9050919050565b620005988162000579565b82525050565b6000602082019050620005b560008301846200058d565b92915050565b61274780620005cb6000396000f3fe608060405234801561001057600080fd5b50600436106101165760003560e01c80638da5cb5b116100a2578063c87b56dd11610071578063c87b56dd146102cb578063e90ec661146102fb578063e985e9c514610319578063eacabe1414610349578063f2fde38b1461037957610116565b80638da5cb5b1461025757806395d89b4114610275578063a22cb46514610293578063b88d4fde146102af57610116565b806323b872dd116100e957806323b872dd146101b557806342842e0e146101d15780636352211e146101ed57806370a082311461021d578063715018a61461024d57610116565b806301ffc9a71461011b57806306fdde031461014b578063081812fc14610169578063095ea7b314610199575b600080fd5b61013560048036038101906101309190611b68565b610395565b6040516101429190611bb0565b60405180910390f35b6101536103f6565b6040516101609190611c5b565b60405180910390f35b610183600480360381019061017e9190611cb3565b610488565b6040516101909190611d21565b60405180910390f35b6101b360048036038101906101ae9190611d68565b6104a4565b005b6101cf60048036038101906101ca9190611da8565b6104ba565b005b6101eb60048036038101906101e69190611da8565b6105bc565b005b61020760048036038101906102029190611cb3565b6105dc565b6040516102149190611d21565b60405180910390f35b61023760048036038101906102329190611dfb565b6105ee565b6040516102449190611e37565b60405180910390f35b6102556106a8565b005b61025f6106bc565b60405161026c9190611d21565b60405180910390f35b61027d6106e6565b60405161028a9190611c5b565b60405180910390f35b6102ad60048036038101906102a89190611e7e565b610778565b005b6102c960048036038101906102c49190611ff3565b61078e565b005b6102e560048036038101906102e09190611cb3565b6107ab565b6040516102f29190611c5b565b60405180910390f35b6103036108be565b6040516103109190611c5b565b60405180910390f35b610333600480360381019061032e9190612076565b6108f7565b6040516103409190611bb0565b60405180910390f35b610363600480360381019061035e9190612157565b61098b565b6040516103709190611e37565b60405180910390f35b610393600480360381019061038e9190611dfb565b610a41565b005b6000634906490660e01b7bffffffffffffffffffffffffffffffffffffffffffffffffffffffff1916827bffffffffffffffffffffffffffffffffffffffffffffffffffffffff191614806103ef57506103ee82610ac7565b5b9050919050565b606060008054610405906121e2565b80601f0160208091040260200160405190810160405280929190818152602001828054610431906121e2565b801561047e5780601f106104535761010080835404028352916020019161047e565b820191906000526020600020905b81548152906001019060200180831161046157829003601f168201915b5050505050905090565b600061049382610ba9565b5061049d82610c31565b9050919050565b6104b682826104b1610c6e565b610c76565b5050565b600073ffffffffffffffffffffffffffffffffffffffff168273ffffffffffffffffffffffffffffffffffffffff160361052c5760006040517f64a0ae920000000000000000000000000000000000000000000000000000000081526004016105239190611d21565b60405180910390fd5b6000610540838361053b610c6e565b610c88565b90508373ffffffffffffffffffffffffffffffffffffffff168173ffffffffffffffffffffffffffffffffffffffff16146105b6578382826040517f64283d7b0000000000000000000000000000000000000000000000000000000081526004016105ad93929190612213565b60405180910390fd5b50505050565b6105d78383836040518060200160405280600081525061078e565b505050565b60006105e782610ba9565b9050919050565b60008073ffffffffffffffffffffffffffffffffffffffff168273ffffffffffffffffffffffffffffffffffffffff16036106615760006040517f89c62b640000000000000000000000000000000000000000000000000000000081526004016106589190611d21565b60405180910390fd5b600360008373ffffffffffffffffffffffffffffffffffffffff1673ffffffffffffffffffffffffffffffffffffffff168152602001908152602001600020549050919050565b6106b0610ea2565b6106ba6000610f29565b565b6000600760009054906101000a900473ffffffffffffffffffffffffffffffffffffffff16905090565b6060600180546106f5906121e2565b80601f0160208091040260200160405190810160405280929190818152602001828054610721906121e2565b801561076e5780601f106107435761010080835404028352916020019161076e565b820191906000526020600020905b81548152906001019060200180831161075157829003601f168201915b5050505050905090565b61078a610783610c6e565b8383610fef565b5050565b6107998484846104ba565b6107a58484848461115e565b50505050565b60606107b682610ba9565b5060006006600084815260200190815260200160002080546107d7906121e2565b80601f0160208091040260200160405190810160405280929190818152602001828054610803906121e2565b80156108505780601f1061082557610100808354040283529160200191610850565b820191906000526020600020905b81548152906001019060200180831161083357829003601f168201915b505050505090506000610861611315565b905060008151036108765781925050506108b9565b6000825111156108ab578082604051602001610893929190612286565b604051602081830303815290604052925050506108b9565b6108b48461132c565b925050505b919050565b6040518060400160405280600c81526020017f4b5542495f6f675f64726f70000000000000000000000000000000000000000081525081565b6000600560008473ffffffffffffffffffffffffffffffffffffffff1673ffffffffffffffffffffffffffffffffffffffff16815260200190815260200160002060008373ffffffffffffffffffffffffffffffffffffffff1673ffffffffffffffffffffffffffffffffffffffff16815260200190815260200160002060009054906101000a900460ff16905092915050565b6000610995610ea2565b600860008154809291906109a8906122d9565b9190505550600060085490506109be8482611395565b6109c8818461148e565b807fa927ac04d4d3734fe8f2c6d7e10171f210b004d3f2d2a4449bbc6a5f2e5427e36040518060400160405280600c81526020017f4b5542495f6f675f64726f70000000000000000000000000000000000000000081525085604051610a2f929190612321565b60405180910390a28091505092915050565b610a49610ea2565b600073ffffffffffffffffffffffffffffffffffffffff168173ffffffffffffffffffffffffffffffffffffffff1603610abb5760006040517f1e4fbdf7000000000000000000000000000000000000000000000000000000008152600401610ab29190611d21565b60405180910390fd5b610ac481610f29565b50565b60007f80ac58cd000000000000000000000000000000000000000000000000000000007bffffffffffffffffffffffffffffffffffffffffffffffffffffffff1916827bffffffffffffffffffffffffffffffffffffffffffffffffffffffff19161480610b9257507f5b5e139f000000000000000000000000000000000000000000000000000000007bffffffffffffffffffffffffffffffffffffffffffffffffffffffff1916827bffffffffffffffffffffffffffffffffffffffffffffffffffffffff1916145b80610ba25750610ba1826114ea565b5b9050919050565b600080610bb583611554565b9050600073ffffffffffffffffffffffffffffffffffffffff168173ffffffffffffffffffffffffffffffffffffffff1603610c2857826040517f7e273289000000000000000000000000000000000000000000000000000000008152600401610c1f9190611e37565b60405180910390fd5b80915050919050565b60006004600083815260200190815260200160002060009054906101000a900473ffffffffffffffffffffffffffffffffffffffff169050919050565b600033905090565b610c838383836001611591565b505050565b600080610c9484611554565b9050600073ffffffffffffffffffffffffffffffffffffffff168373ffffffffffffffffffffffffffffffffffffffff1614610cd657610cd5818486611756565b5b600073ffffffffffffffffffffffffffffffffffffffff168173ffffffffffffffffffffffffffffffffffffffff1614610d6757610d18600085600080611591565b6001600360008373ffffffffffffffffffffffffffffffffffffffff1673ffffffffffffffffffffffffffffffffffffffff168152602001908152602001600020600082825403925050819055505b600073ffffffffffffffffffffffffffffffffffffffff168573ffffffffffffffffffffffffffffffffffffffff1614610dea576001600360008773ffffffffffffffffffffffffffffffffffffffff1673ffffffffffffffffffffffffffffffffffffffff168152602001908152602001600020600082825401925050819055505b846002600086815260200190815260200160002060006101000a81548173ffffffffffffffffffffffffffffffffffffffff021916908373ffffffffffffffffffffffffffffffffffffffff160217905550838573ffffffffffffffffffffffffffffffffffffffff168273ffffffffffffffffffffffffffffffffffffffff167fddf252ad1be2c89b69c2b068fc378daa952ba7f163c4a11628f55a4df523b3ef60405160405180910390a4809150509392505050565b610eaa610c6e565b73ffffffffffffffffffffffffffffffffffffffff16610ec86106bc565b73ffffffffffffffffffffffffffffffffffffffff1614610f2757610eeb610c6e565b6040517f118cdaa7000000000000000000000000000000000000000000000000000000008152600401610f1e9190611d21565b60405180910390fd5b565b6000600760009054906101000a900473ffffffffffffffffffffffffffffffffffffffff16905081600760006101000a81548173ffffffffffffffffffffffffffffffffffffffff021916908373ffffffffffffffffffffffffffffffffffffffff1602179055508173ffffffffffffffffffffffffffffffffffffffff168173ffffffffffffffffffffffffffffffffffffffff167f8be0079c531659141344cd1fd0a4f28419497f9722a3daafe3b4186f6b6457e060405160405180910390a35050565b600073ffffffffffffffffffffffffffffffffffffffff168273ffffffffffffffffffffffffffffffffffffffff160361106057816040517f5b08ba180000000000000000000000000000000000000000000000000000000081526004016110579190611d21565b60405180910390fd5b80600560008573ffffffffffffffffffffffffffffffffffffffff1673ffffffffffffffffffffffffffffffffffffffff16815260200190815260200160002060008473ffffffffffffffffffffffffffffffffffffffff1673ffffffffffffffffffffffffffffffffffffffff16815260200190815260200160002060006101000a81548160ff0219169083151502179055508173ffffffffffffffffffffffffffffffffffffffff168373ffffffffffffffffffffffffffffffffffffffff167f17307eab39ab6107e8899845ad3d59bd9653f200f220920489ca2b5937696c31836040516111519190611bb0565b60405180910390a3505050565b60008373ffffffffffffffffffffffffffffffffffffffff163b111561130f578273ffffffffffffffffffffffffffffffffffffffff1663150b7a026111a2610c6e565b8685856040518563ffffffff1660e01b81526004016111c494939291906123ad565b6020604051808303816000875af192505050801561120057506040513d601f19601f820116820180604052508101906111fd919061240e565b60015b611284573d8060008114611230576040519150601f19603f3d011682016040523d82523d6000602084013e611235565b606091505b50600081510361127c57836040517f64a0ae920000000000000000000000000000000000000000000000000000000081526004016112739190611d21565b60405180910390fd5b805181602001fd5b63150b7a0260e01b7bffffffffffffffffffffffffffffffffffffffffffffffffffffffff1916817bffffffffffffffffffffffffffffffffffffffffffffffffffffffff19161461130d57836040517f64a0ae920000000000000000000000000000000000000000000000000000000081526004016113049190611d21565b60405180910390fd5b505b50505050565b606060405180602001604052806000815250905090565b606061133782610ba9565b506000611342611315565b90506000815111611362576040518060200160405280600081525061138d565b8061136c8461181a565b60405160200161137d929190612286565b6040516020818303038152906040525b915050919050565b600073ffffffffffffffffffffffffffffffffffffffff168273ffffffffffffffffffffffffffffffffffffffff16036114075760006040517f64a0ae920000000000000000000000000000000000000000000000000000000081526004016113fe9190611d21565b60405180910390fd5b600061141583836000610c88565b9050600073ffffffffffffffffffffffffffffffffffffffff168173ffffffffffffffffffffffffffffffffffffffff16146114895760006040517f73c6ac6e0000000000000000000000000000000000000000000000000000000081526004016114809190611d21565b60405180910390fd5b505050565b806006600084815260200190815260200160002090816114ae91906125e7565b507ff8e1a15aba9398e019f0b49df1a4fde98ee17ae345cb5f6b5e2c27f5033e8ce7826040516114de9190611e37565b60405180910390a15050565b60007f01ffc9a7000000000000000000000000000000000000000000000000000000007bffffffffffffffffffffffffffffffffffffffffffffffffffffffff1916827bffffffffffffffffffffffffffffffffffffffffffffffffffffffff1916149050919050565b60006002600083815260200190815260200160002060009054906101000a900473ffffffffffffffffffffffffffffffffffffffff169050919050565b80806115ca5750600073ffffffffffffffffffffffffffffffffffffffff168273ffffffffffffffffffffffffffffffffffffffff1614155b156116fe5760006115da84610ba9565b9050600073ffffffffffffffffffffffffffffffffffffffff168373ffffffffffffffffffffffffffffffffffffffff161415801561164557508273ffffffffffffffffffffffffffffffffffffffff168173ffffffffffffffffffffffffffffffffffffffff1614155b8015611658575061165681846108f7565b155b1561169a57826040517fa9fbf51f0000000000000000000000000000000000000000000000000000000081526004016116919190611d21565b60405180910390fd5b81156116fc57838573ffffffffffffffffffffffffffffffffffffffff168273ffffffffffffffffffffffffffffffffffffffff167f8c5be1e5ebec7d5bd14f71427d1e84f3dd0314c0f7b2291e5b200ac8c7c3b92560405160405180910390a45b505b836004600085815260200190815260200160002060006101000a81548173ffffffffffffffffffffffffffffffffffffffff021916908373ffffffffffffffffffffffffffffffffffffffff16021790555050505050565b6117618383836118e8565b61181557600073ffffffffffffffffffffffffffffffffffffffff168373ffffffffffffffffffffffffffffffffffffffff16036117d657806040517f7e2732890000000000000000000000000000000000000000000000000000000081526004016117cd9190611e37565b60405180910390fd5b81816040517f177e802f00000000000000000000000000000000000000000000000000000000815260040161180c9291906126b9565b60405180910390fd5b505050565b606060006001611829846119a9565b01905060008167ffffffffffffffff81111561184857611847611ec8565b5b6040519080825280601f01601f19166020018201604052801561187a5781602001600182028036833780820191505090505b509050600082602001820190505b6001156118dd578080600190039150507f3031323334353637383961626364656600000000000000000000000000000000600a86061a8153600a85816118d1576118d06126e2565b5b04945060008503611888575b819350505050919050565b60008073ffffffffffffffffffffffffffffffffffffffff168373ffffffffffffffffffffffffffffffffffffffff16141580156119a057508273ffffffffffffffffffffffffffffffffffffffff168473ffffffffffffffffffffffffffffffffffffffff161480611961575061196084846108f7565b5b8061199f57508273ffffffffffffffffffffffffffffffffffffffff1661198783610c31565b73ffffffffffffffffffffffffffffffffffffffff16145b5b90509392505050565b600080600090507a184f03e93ff9f4daa797ed6e38ed64bf6a1f0100000000000000008310611a07577a184f03e93ff9f4daa797ed6e38ed64bf6a1f01000000000000000083816119fd576119fc6126e2565b5b0492506040810190505b6d04ee2d6d415b85acef81000000008310611a44576d04ee2d6d415b85acef81000000008381611a3a57611a396126e2565b5b0492506020810190505b662386f26fc100008310611a7357662386f26fc100008381611a6957611a686126e2565b5b0492506010810190505b6305f5e1008310611a9c576305f5e1008381611a9257611a916126e2565b5b0492506008810190505b6127108310611ac1576127108381611ab757611ab66126e2565b5b0492506004810190505b60648310611ae45760648381611ada57611ad96126e2565b5b0492506002810190505b600a8310611af3576001810190505b80915050919050565b6000604051905090565b600080fd5b600080fd5b60007fffffffff0000000000000000000000000000000000000000000000000000000082169050919050565b611b4581611b10565b8114611b5057600080fd5b50565b600081359050611b6281611b3c565b92915050565b600060208284031215611b7e57611b7d611b06565b5b6000611b8c84828501611b53565b91505092915050565b60008115159050919050565b611baa81611b95565b82525050565b6000602082019050611bc56000830184611ba1565b92915050565b600081519050919050565b600082825260208201905092915050565b60005b83811015611c05578082015181840152602081019050611bea565b60008484015250505050565b6000601f19601f8301169050919050565b6000611c2d82611bcb565b611c378185611bd6565b9350611c47818560208601611be7565b611c5081611c11565b840191505092915050565b60006020820190508181036000830152611c758184611c22565b905092915050565b6000819050919050565b611c9081611c7d565b8114611c9b57600080fd5b50565b600081359050611cad81611c87565b92915050565b600060208284031215611cc957611cc8611b06565b5b6000611cd784828501611c9e565b91505092915050565b600073ffffffffffffffffffffffffffffffffffffffff82169050919050565b6000611d0b82611ce0565b9050919050565b611d1b81611d00565b82525050565b6000602082019050611d366000830184611d12565b92915050565b611d4581611d00565b8114611d5057600080fd5b50565b600081359050611d6281611d3c565b92915050565b60008060408385031215611d7f57611d7e611b06565b5b6000611d8d85828601611d53565b9250506020611d9e85828601611c9e565b9150509250929050565b600080600060608486031215611dc157611dc0611b06565b5b6000611dcf86828701611d53565b9350506020611de086828701611d53565b9250506040611df186828701611c9e565b9150509250925092565b600060208284031215611e1157611e10611b06565b5b6000611e1f84828501611d53565b91505092915050565b611e3181611c7d565b82525050565b6000602082019050611e4c6000830184611e28565b92915050565b611e5b81611b95565b8114611e6657600080fd5b50565b600081359050611e7881611e52565b92915050565b60008060408385031215611e9557611e94611b06565b5b6000611ea385828601611d53565b9250506020611eb485828601611e69565b9150509250929050565b600080fd5b600080fd5b7f4e487b7100000000000000000000000000000000000000000000000000000000600052604160045260246000fd5b611f0082611c11565b810181811067ffffffffffffffff82111715611f1f57611f1e611ec8565b5b80604052505050565b6000611f32611afc565b9050611f3e8282611ef7565b919050565b600067ffffffffffffffff821115611f5e57611f5d611ec8565b5b611f6782611c11565b9050602081019050919050565b82818337600083830152505050565b6000611f96611f9184611f43565b611f28565b905082815260208101848484011115611fb257611fb1611ec3565b5b611fbd848285611f74565b509392505050565b600082601f830112611fda57611fd9611ebe565b5b8135611fea848260208601611f83565b91505092915050565b6000806000806080858703121561200d5761200c611b06565b5b600061201b87828801611d53565b945050602061202c87828801611d53565b935050604061203d87828801611c9e565b925050606085013567ffffffffffffffff81111561205e5761205d611b0b565b5b61206a87828801611fc5565b91505092959194509250565b6000806040838503121561208d5761208c611b06565b5b600061209b85828601611d53565b92505060206120ac85828601611d53565b9150509250929050565b600067ffffffffffffffff8211156120d1576120d0611ec8565b5b6120da82611c11565b9050602081019050919050565b60006120fa6120f5846120b6565b611f28565b90508281526020810184848401111561211657612115611ec3565b5b612121848285611f74565b509392505050565b600082601f83011261213e5761213d611ebe565b5b813561214e8482602086016120e7565b91505092915050565b6000806040838503121561216e5761216d611b06565b5b600061217c85828601611d53565b925050602083013567ffffffffffffffff81111561219d5761219c611b0b565b5b6121a985828601612129565b9150509250929050565b7f4e487b7100000000000000000000000000000000000000000000000000000000600052602260045260246000fd5b600060028204905060018216806121fa57607f821691505b60208210810361220d5761220c6121b3565b5b50919050565b60006060820190506122286000830186611d12565b6122356020830185611e28565b6122426040830184611d12565b949350505050565b600081905092915050565b600061226082611bcb565b61226a818561224a565b935061227a818560208601611be7565b80840191505092915050565b60006122928285612255565b915061229e8284612255565b91508190509392505050565b7f4e487b7100000000000000000000000000000000000000000000000000000000600052601160045260246000fd5b60006122e482611c7d565b91507fffffffffffffffffffffffffffffffffffffffffffffffffffffffffffffffff8203612316576123156122aa565b5b600182019050919050565b6000604082019050818103600083015261233b8185611c22565b9050818103602083015261234f8184611c22565b90509392505050565b600081519050919050565b600082825260208201905092915050565b600061237f82612358565b6123898185612363565b9350612399818560208601611be7565b6123a281611c11565b840191505092915050565b60006080820190506123c26000830187611d12565b6123cf6020830186611d12565b6123dc6040830185611e28565b81810360608301526123ee8184612374565b905095945050505050565b60008151905061240881611b3c565b92915050565b60006020828403121561242457612423611b06565b5b6000612432848285016123f9565b91505092915050565b60008190508160005260206000209050919050565b60006020601f8301049050919050565b600082821b905092915050565b60006008830261249d7fffffffffffffffffffffffffffffffffffffffffffffffffffffffffffffffff82612460565b6124a78683612460565b95508019841693508086168417925050509392505050565b6000819050919050565b60006124e46124df6124da84611c7d565b6124bf565b611c7d565b9050919050565b6000819050919050565b6124fe836124c9565b61251261250a826124eb565b84845461246d565b825550505050565b600090565b61252761251a565b6125328184846124f5565b505050565b5b818110156125565761254b60008261251f565b600181019050612538565b5050565b601f82111561259b5761256c8161243b565b61257584612450565b81016020851015612584578190505b61259861259085612450565b830182612537565b50505b505050565b600082821c905092915050565b60006125be600019846008026125a0565b1980831691505092915050565b60006125d783836125ad565b9150826002028217905092915050565b6125f082611bcb565b67ffffffffffffffff81111561260957612608611ec8565b5b61261382546121e2565b61261e82828561255a565b600060209050601f831160018114612651576000841561263f578287015190505b61264985826125cb565b8655506126b1565b601f19841661265f8661243b565b60005b8281101561268757848901518255600182019150602085019450602081019050612662565b868310156126a457848901516126a0601f8916826125ad565b8355505b6001600288020188555050505b505050505050565b60006040820190506126ce6000830185611d12565b6126db6020830184611e28565b9392505050565b7f4e487b7100000000000000000000000000000000000000000000000000000000600052601260045260246000fdfea264697066735822122052b873db6b49e1b27f8d1fcb4ed2050a3c981639d5fb44f45c91162a05391b7064736f6c63430008180033",
  "linkReferences": {},
  "deployedLinkReferences": {}
}